:020000040800F2
:1000000000800220CD0D0008550D00085B0D000892
:10001000610D0008670D00086D0D0008000000006C
:10002000000000000000000000000000730D000848
:10003000810D0008000000008F0D00089D0D0008D4
:100040001D0E00081D0E00081D0E00081D0E0008E4
:100050001D0E00081D0E00081D0E00081D0E0008D4
:100060001D0E00081D0E00081D0E00081D0E0008C4
:100070001D0E00081D0E00081D0E00081D0E0008B4
:100080001D0E00081D0E00081D0E00081D0E0008A4
:100090001D0E00081D0E00081D0E00081D0E000894
:1000A0001D0E00081D0E00081D0E00081D0E000884
:1000B0001D0E00081D0E0008000000001D0E0008A7
:1000C0001D0E00081D0E00081D0E00081D0E000864
:1000D0001D0E00081D0E00081D0E00081D0E000854
:1000E0001D0E00081D0E00080000000000000000AA
:1000F0000000000000000000000000000000000000
:10010000000000001D0E0008000000001D0E000889
:100110001D0E0008000000001D0E00080000000079
:100120001D0E00081D0E00081D0E00081D0E000803
:100130001D0E00081D0E00081D0E00080000000026
:100140001D0E00081D0E00081D0E00081D0E0008E3
:100150001D0E00081D0E00081D0E00081D0E0008D3
:100160001D0E00081D0E00081D0E000800000000F6
:10017000000000001D0E000800000000000000004C
:100180001D0E00081D0E00081D0E00081D0E0008A3
:040190001D0E000838
:1001940010B5054C237833B9044B13B10448AFF3BD
:1001A40000800123237010BD0C000020000000001B
:1001B400983D000808B5034B1BB103490348AFF34E
:1001C400008008BD0000000010000020983D0008D9
:1001D40053B94AB9002908BF00281CBF4FF0FF31AA
:1001E4004FF0FF3000F074B9ADF1080C6DE904CEA6
:1001F40000F006F8DDF804E0DDE9022304B07047FE
:100204002DE9F047089D04468E46002B4DD18A42C5
:10021400944669D9B2FA82F252B101FA02F3C2F1F8
:10022400200120FA01F10CFA02FC41EA030E944089
:100234004FEA1C48210CBEFBF8F61FFA8CF708FBAA
:1002440016E341EA034306FB07F199420AD91CEB82
:10025400030306F1FF3080F01F81994240F21C81B4
:10026400023E63445B1AA4B2B3FBF8F008FB1033FC
:1002740044EA034400FB07F7A7420AD91CEB040431
:1002840000F1FF3380F00A81A74240F20781644401
:10029400023840EA0640E41B00261DB1D440002386
:1002A400C5E900433146BDE8F0878B4209D9002DEA
:1002B40000F0EF800026C5E9000130463146BDE874
:1002C400F087B3FA83F6002E4AD18B4202D38242DE
:1002D40000F2F980841A61EB030301209E46002D8D
:1002E400E0D0C5E9004EDDE702B9FFDEB2FA82F2E2
:1002F400002A40F09280A1EB0C014FEA1C471FFA40
:100304008CFE0126200CB1FBF7F307FB131140EA26
:1003140001410EFB03F0884208D91CEB010103F1F3
:10032400FF3802D2884200F2CB804346091AA4B2B5
:10033400B1FBF7F007FB101144EA01440EFB00FE89
:10034400A64508D91CEB040400F1FF3102D2A645EE
:1003540000F2BB800846A4EB0E0440EA03409CE78D
:10036400C6F12007B34022FA07FC4CEA030C20FA3A
:1003740007F401FA06F31C43F9404FEA1C4900FA5A
:1003840006F3B1FBF9F8200C1FFA8CFE09FB1811D7
:1003940040EA014108FB0EF0884202FA06F20BD94A
:1003A4001CEB010108F1FF3A80F08880884240F29A
:1003B4008580A8F102086144091AA4B2B1FBF9F0DE
:1003C40009FB101144EA014100FB0EFE8E4508D9D9
:1003D4001CEB010100F1FF346CD28E456AD902385E
:1003E400614440EA0840A0FB0294A1EB0E01A14243
:1003F400C846A64656D353D05DB1B3EB080261EBB1
:100404000E0101FA07F722FA06F3F1401F43C5E98A
:10041400007100263146BDE8F087C2F12003D840C0
:100424000CFA02FC21FA03F3914001434FEA1C4702
:100434001FFA8CFEB3FBF7F007FB10360B0C43EAF4
:10044400064300FB0EF69E4204FA02F408D91CEBA4
:10045400030300F1FF382FD29E422DD902386344A2
:100464009B1B89B2B3FBF7F607FB163341EA034142
:1004740006FB0EF38B4208D91CEB010106F1FF3891
:1004840016D28B4214D9023E6144C91A46EA004688
:1004940038E72E46284605E70646E3E61846F8E61A
:1004A4004B45A9D2B9EB020864EB0C0E0138A3E763
:1004B4004646EAE7204694E74046D1E7D0467BE744
:1004C400023B614432E7304609E76444023842E7BC
:1004D400704700BF80B483B000AF78607B681B783E
:1004E400C3F30203DBB25B015AB27B681B78C3F32C
:1004F400C203DBB29B005BB213435AB27B681B7826
:10050400C3F38113DBB25BB213435BB2DBB21846B5
:100514000C37BD465DF8047B704780B584B000AFEE
:10052400F860B9601346FB71FB68BA685A60FB68EF
:10053400FA791A72F86800F098F8F86800F083F80D
:1005440003461A46FB681A70012307220321F86840
:1005540000F098F8F86800F005F8FB6818461037C2
:10056400BD4680BD80B582B000AF786088217868D0
:1005740000F02CF903461A467B685A818A21786870
:1005840000F024F903461AB27B689A818C217868BA
:1005940000F01CF903461AB27B68DA8100BF083701
:1005A400BD4680BD80B588B000AF7860FA21786818
:1005B40000F02FF90346FB61FB691B11FB61FB692A
:1005C400DA107B685B895B00D31A7A68B2F90C2075
:1005D40002FB03F3DB12BB61FB691B117A685289CE
:1005E4009B1AFA69121179684989521A02FB03F3BA
:1005F4001B137A68B2F90E2002FB03F39B137B6191
:10060400BA697B6913443B613A6913469B001344FE
:1006140080331B12FB60FB68044A82FB03125211F5
:10062400DB17D31A18462037BD4680BD1F85EB5112
:1006340080B483B000AF7860002318460C37BD4601
:100644005DF8047B704780B582B000AF7860D0213C
:10065400786800F09FF80346582B0CBF0123002351
:10066400DBB218460837BD4680BD80B582B000AF06
:100674007860B622E021786800F042F800BF0837BD
:10068400BD4680BD80B584B000AF78600846114691
:100694001A460346FB700B46BB7013467B70FB780F
:1006A40003F00303D9B27A68537A61F38713537260
:1006B4007B7803F00703D9B27A68537A61F3C503F0
:1006C4005372BB7803F00703D9B27A68537A61F3A3
:1006D400020353720023BB8120237B737B6809339D
:1006E4001846FFF7F7FE03463B7307F10C0202239B
:1006F400F421786800F022F800BF1037BD4680BDB1
:1007040080B586B004AF78600B46FB701346BB70AF
:100714007B6858687B681B7A99B2FB789AB201238C
:10072400029301230193BB1C0093012300F014FFE7
:10073400034618460837BD4680BD0000B0B588B0F2
:1007440004AFF8607A603B600B46FB72FB68586844
:10075400FB681B7A99B2FB7A9CB23B689BB23A68FD
:1007640003321546642205FB02F202F57A72084D43
:10077400A5FB02529209029201937B680093012324
:10078400224600F0E9FE034618461037BD46B0BDC8
:10079400D34D621080B588B004AF78600B46FB700F
:1007A4007B6858687B681B7A99B2FB789AB20123FC
:1007B40002930123019307F10F030093012300F037
:1007C400DFFFFB7B18461037BD4680BD80B588B07F
:1007D40004AF78600B46FB707B6858687B681B7AB3
:1007E40099B2FB789AB2012302930223019307F191
:1007F4000C030093012300F0C3FF7B7B1B021AB29E
:100804003B7B1BB213431BB29BB218461037BD4649
:1008140080BD80B588B004AF78600B46FB707B6800
:1008240058687B681B7A99B2FB789AB201230293C9
:100834000323019307F10C030093012300F0A0FFAD
:100844003B7B1A047B7B1B021343BA7B134318467E
:100854001037BD4680BD000080B586B000AF03F000
:10086400CDF900F027F800F007F900F0D1F800F016
:1008740081F83B46EE220E491846FFF74EFE3B78C0
:100884007B613B461846FFF78DFE07EE900AF8EEB3
:10089400677AC7ED047A4FF47A7003F02BFA3B467B
:1008A4001846FFF7C5FE4FF47A7003F023FAE8E721
:1008B4002800002080B596B000AF07F1140344224D
:1008C4000021184603F05EFA3B4600221A605A6083
:1008D4009A60DA601A614FF4007001F01FFB03465E
:1008E400002B14BF01230023DBB2002B01D000F046
:1008F4004DF902237B614FF480733B6240237B629A
:100904000223FB6302233B6401237B640A23BB644D
:100914000723FB6402233B6502237B6507F1140371
:10092400184601F0AFFE0346002B14BF0123002339
:10093400DBB2002B01D000F029F90F233B60032325
:100944007B600023BB600023FB6000233B613B46CC
:100954000421184602F0AAFA0346002B14BF01230F
:100964000023DBB2002B01D000F010F900BF583790
:10097400BD4680BD80B500AF224B234A1A60214B8F
:10098400224A5A601F4B00229A601E4B0122DA60F1
:100994001C4B00221A611B4B00225A61194B002286
:1009A4009A61184B0022DA61164B00221A6215482C
:1009B40000F043FD0346002B14BF01230023DBB2E8
:1009C400002B01D000F0E2F800210E4800F09EFC5C
:1009D4000346002B14BF01230023DBB2002B01D0FC
:1009E40000F0D4F80021074800F0DBFC0346002B9C
:1009F40014BF01230023DBB2002B01D000F0C6F8A2
:100A040000BF80BD2800002000540040EC9C9010E2
:100A140080B500AF164B174A1A60154B4FF4E132FC
:100A24005A60134B00229A60114B0022DA60104B7B
:100A340000221A610E4B0C225A610D4B00229A615E
:100A44000B4B0022DA610A4B00221A62084B002287
:100A54005A62074802F04EFC0346002B14BF0123E0
:100A64000023DBB2002B01D000F090F800BF80BD62
:100A74007C0000200044004080B58AB000AF07F13C
:100A8400140300221A605A609A60DA601A613C4BBF
:100A9400DB6C3B4A43F00403D364394BDB6C03F057
:100AA40004033B613B69364BDB6C354A43F08003FE
:100AB400D364334BDB6C03F08003FB60FB68304B87
:100AC400DB6C2F4A43F00103D3642D4BDB6C03F042
:100AD4000103BB60BB682A4BDB6C294A43F0020369
:100AE400D364274BDB6C03F002037B607B6800223A
:100AF400B0214FF0904000F0F1FB00224FF4005180
:100B0400204800F0EBFB4FF400537B614FF40413D7
:100B1400BB610023FB6107F1140319461A4800F076
:100B240063FAB0237B610123BB610023FB610023D3
:100B34003B6207F1140319464FF0904000F054FA59
:100B440040237B610023BB610123FB6107F1140394
:100B540019464FF0904000F047FA4FF400537B6180
:100B64000123BB610023FB6100233B6207F11403F3
:100B74001946044800F038FA00BF2837BD4680BD46
:100B840000100240000400480008004880B400AF90
:100B940072B600BFFEE7000080B483B000AF0F4B15
:100BA4001B6E0E4A43F0010313660C4B1B6E03F0DD
:100BB40001037B607B68094B9B6D084A43F08053BB
:100BC4009365064B9B6D03F080533B603B6800BF0D
:100BD4000C37BD465DF8047B704700BF001002402F
:100BE40080B5A4B000AF786007F17C0300221A60DE
:100BF4005A609A60DA601A6107F1140368220021CE
:100C0400184603F0BFF87B681B68214A93423BD126
:100C140040237B610023BB6407F11403184601F0F1
:100C2400D3F90346002B01D0FFF7B0FF194BDB6C5F
:100C3400184A43F00103D364164BDB6C03F0010341
:100C44003B613B694FF4C063FB671223C7F88030F4
:100C54000023C7F884300323C7F888300423C7F877
:100C64008C3007F17C0319464FF0904000F0BCF93A
:100C7400084B9B6D074A43F400139365054B9B6D2A
:100C840003F40013FB60FB6800BF9037BD4680BDD2
:100C9400005400400010024080B5A4B000AF78605A
:100CA40007F17C0300221A605A609A60DA601A61C4
:100CB40007F1140368220021184603F063F87B68E7
:100CC4001B68214A93423AD102237B610023BB6310
:100CD40007F11403184601F077F90346002B01D0FD
:100CE400FFF754FF194B9B6D184A43F40033936587
:100CF400164B9B6D03F400333B613B69134BDB6C78
:100D0400124A43F00103D364104BDB6C03F001037C
:100D1400FB60FB680C23FB670223C7F880300023C9
:100D2400C7F884300323C7F888300723C7F88C300A
:100D340007F17C0319464FF0904000F055F900BFCD
:100D44009037BD4680BD00BF004400400010024003
:100D540080B400AFFEE780B400AFFEE780B400AF1C
:100D6400FEE780B400AFFEE780B400AFFEE780B4D6
:100D740000AF00BFBD465DF8047B704780B400AF90
:100D840000BFBD465DF8047B704780B400AF00BF70
:100D9400BD465DF8047B704780B500AF02F08AFF62
:100DA40000BF80BD80B400AF064BD3F88830054A3D
:100DB40043F47003C2F8883000BFBD465DF8047B7D
:100DC400704700BF00ED00E0DFF834D0FFF7EAFF22
:100DD4000C480D490D4A002302E0D458C450043392
:100DE400C4188C42F9D30A4A0A4C002301E0136068
:100DF4000432A242FBD302F0A1FFFFF72DFDFEE770
:100E040000800220000000200C000020083E0008A2
:100E14000C00002004010020FEE7000080B485B02F
:100E240000AF78607B6803F00703FB600C4BDB6862
:100E3400BB60BA684FF6FF031340BB60FB681A023D
:100E4400BB68134343F0BF6343F40033BB60044AFD
:100E5400BB68D36000BF1437BD465DF8047B7047A0
:100E640000ED00E080B400AF044BDB681B0A03F024
:100E740007031846BD465DF8047B704700ED00E0AB
:100E840080B483B000AF03463960FB7197F9073033
:100E9400002B0ADB3B68DAB20C4997F907301201E0
:100EA400D2B20B4483F800230AE03B68DAB2084963
:100EB400FB7903F00F03043B1201D2B20B441A7600
:100EC40000BF0C37BD465DF8047B704700E100E0CD
:100ED40000ED00E080B489B000AFF860B9607A60DA
:100EE400FB6803F00703FB61FB69C3F10703042BF1
:100EF40028BF0423BB61FB690433062B02D9FB69B9
:100F0400033B00E000237B614FF0FF32BB6902FA30
:100F140003F3DA43BB681A407B699A404FF0FF3110
:100F24007B6901FA03F3D9437B680B4013431846EA
:100F34002437BD465DF8047B7047000080B582B05D
:100F440000AF78607B68013BB3F1807F01D301235C
:100F54000FE00A4A7B68013B53600F214FF0FF30DA
:100F6400FFF78EFF054B00229A60044B07221A609C
:100F7400002318460837BD4680BD00BF10E000E0DE
:100F840080B582B000AF78607868FFF747FF00BF94
:100F94000837BD4680BD80B586B000AF0346B96052
:100FA4007A60FB7300237B61FFF75CFF78617A68EA
:100FB400B9687869FFF78EFF024697F90F3011463A
:100FC4001846FFF75DFF00BF1837BD4680BD80B5EA
:100FD40082B000AF78607868FFF7B0FF0346184628
:100FE4000837BD4680BD000080B487B000AF78608C
:100FF400396000237B6154E13B681A6801217B69F5
:1010040001FA03F31340FB60FB68002B00F04681F8
:101014003B685B6803F00303012B05D03B685B6806
:1010240003F00303022B30D17B689B683B617B692F
:101034005B00032202FA03F3DB433A6913403B618A
:101044003B68DA687B695B0002FA03F33A6913438D
:101054003B617B683A699A607B685B683B6101220B
:101064007B6902FA03F3DB433A6913403B613B6853
:101074005B681B0903F001027B6902FA03F33A6916
:1010840013433B617B683A695A603B685B6803F0D1
:101094000303032B17D07B68DB683B617B695B0030
:1010A400032202FA03F3DB433A6913403B613B68D2
:1010B4009A687B695B0002FA03F33A6913433B6164
:1010C4007B683A69DA603B685B6803F00303022BD0
:1010D40023D17B69DA087B68083253F822303B61FC
:1010E4007B6903F007039B000F2202FA03F3DB433F
:1010F4003A6913403B613B681A697B6903F0070353
:101104009B0002FA03F33A6913433B617B69DA08F3
:101114007B680832396943F822107B681B683B619D
:101124007B695B00032202FA03F3DB433A69134051
:101134003B613B685B6803F003027B695B0002FA76
:1011440003F33A6913433B617B683A691A603B686D
:101154005B6803F44033002B00F0A080584B1B6EF7
:10116400574A43F001031366554B1B6E03F001030A
:10117400BB60BB68534A7B699B08023352F8233037
:101184003B617B6903F003039B000F2202FA03F324
:10119400DB433A6913403B617B68B3F1904F19D04C
:1011A4007B68494A934213D07B68484A93420DD0E6
:1011B4007B68474A934207D07B68464A934201D1F1
:1011C400042308E0072306E0032304E0022302E0EB
:1011D400012300E000237A6902F0030292009340A5
:1011E4003A6913433B6137497B699B0802333A6987
:1011F40041F82320384B9B683B61FB68DB433A6929
:1012040013403B613B685B6803F48013002B03D0FD
:101214003A69FB6813433B612F4A3B6993602E4B49
:10122400DB683B61FB68DB433A6913403B613B6825
:101234005B6803F40013002B03D03A69FB68134383
:101244003B61254A3B69D360234B5B683B61FB6888
:10125400DB433A6913403B613B685B6803F400334A
:10126400002B03D03A69FB6813433B611A4A3B697C
:101274005360194B1B683B61FB68DB433A691340BD
:101284003B613B685B6803F48033002B03D03A690D
:10129400FB6813433B61104A3B6913607B6901336C
:1012A4007B613B681A687B6922FA03F3002B7FF4A5
:1012B400A3AE00BF00BF1C37BD465DF8047B70477A
:1012C40000100240000001400004004800080048EB
:1012D400000C0048001000480004014080B483B0B2
:1012E40000AF78600B467B8013467B707B78002BC5
:1012F40003D07A887B689A6102E07A887B689A6274
:1013040000BF0C37BD465DF8047B704780B483B0E2
:1013140000AF786039607B6893F84130DBB2202BF2
:1013240038D17B6893F84030012B01D1022332E09D
:101334007B68012283F840207B68242283F84120C3
:101344007B681B681A687B681B6822F001021A60BC
:101354007B681B681A687B681B6822F480521A60D9
:101364007B681B6819687B681B683A680A431A60C3
:101374007B681B681A687B681B6842F001021A606C
:101384007B68202283F841207B68002283F8402078
:10139400002300E0022318460C37BD465DF8047BA9
:1013A400704780B485B000AF786039607B6893F88B
:1013B4004130DBB2202B39D17B6893F84030012BCC
:1013C40001D1022333E07B68012283F840207B684B
:1013D400242283F841207B681B681A687B681B6899
:1013E40022F001021A607B681B681B68FB60FB68C3
:1013F40023F47063FB603B681B02FA681343FB60D1
:101404007B681B68FA681A607B681B681A687B68CB
:101414001B6842F001021A607B68202283F8412095
:101424007B68002283F84020002300E00223184652
:101434001437BD465DF8047B704780B582B000AFB9
:1014440078607B68002B01D1012381E07B6893F8ED
:101454004130DBB2002B06D17B68002283F84020A8
:101464007868FFF7BDFB7B68242283F841207B6802
:101474001B681A687B681B6822F001021A607B688B
:101484005A687B681B6822F070621A617B681B686B
:101494009A687B681B6822F400429A607B68DB6868
:1014A400012B07D17B689A687B681B6842F4004271
:1014B4009A6006E07B689A687B681B6842F4044281
:1014C4009A607B68DB68022B04D17B681B684FF44D
:1014D40000625A607B681B685B687A68126843F034
:1014E400007343F4004353607B681B68DA687B68CD
:1014F4001B6822F40042DA607B681A697B685B69C6
:1015040042EA03017B689B691A027B681B680A43F1
:10151400DA607B68D9697B681A6A7B681B680A434E
:101524001A607B681B681A687B681B6842F00102BA
:101534001A607B6800225A647B68202283F8412069
:101544007B6800221A637B68002283F84220002310
:1015540018460837BD4680BD80B588B002AFF86034
:10156400084611461A4603467B810B463B811346C7
:10157400FB80FB6893F84130DBB2202B40F0F9800C
:101584003B6A002B02D0BB8C002B05D1FB684FF4C7
:1015940000725A640123EDE0FB6893F84030012B9C
:1015A40001D10223E6E0FB68012283F8402002F027
:1015B40095FB78617B690093192301224FF4004164
:1015C400F86800F0C3FA0346002B01D00123D1E0F0
:1015D400FB68212283F84120FB68402283F84220E3
:1015E400FB6800225A64FB683A6A5A62FB68BA8C48
:1015F4005A85FB6800225A63F8883A8979897B699D
:101604000193BB6A00930346F86800F0D3F90346DC
:10161400002B05D0FB68002283F840200123A9E0B9
:10162400FB685B8D9BB2FF2B0ED9FB68FF221A85EA
:10163400FB681B8DDAB27989002300934FF0807325
:10164400F86800F02BFC0FE0FB685B8D9AB2FB6836
:101654001A85FB681B8DDAB27989002300934FF059
:101664000073F86800F01AFC7A69B96AF86800F047
:10167400ADFA0346002B01D001237BE0FB685B6AD3
:101684001A78FB681B689A62FB685B6A5A1CFB68E1
:101694005A62FB685B8D9BB2013B9AB2FB685A8528
:1016A400FB681B8D013B9AB2FB681A85FB685B8D56
:1016B4009BB2002B34D0FB681B8D002B30D17B698F
:1016C4000093BB6A00228021F86800F03FFA0346C9
:1016D400002B01D001234DE0FB685B8D9BB2FF2BF7
:1016E4000ED9FB68FF221A85FB681B8DDAB2798953
:1016F400002300934FF08073F86800F0CFFB0FE0F5
:10170400FB685B8D9AB2FB681A85FB681B8DDAB2A5
:101714007989002300934FF00073F86800F0BEFB52
:10172400FB685B8D9BB2002B9ED17A69B96AF8681D
:1017340000F08CFA0346002B01D001231AE0FB6869
:101744001B682022DA61FB681B685968FB681A6809
:101754000A4B0B405360FB68202283F84120FB684E
:10176400002283F84220FB68002283F840200023F3
:1017740000E0022318461837BD4680BD00E800FE8D
:1017840080B588B002AFF860084611461A46034691
:101794007B810B463B811346FB80FB6893F8413009
:1017A400DBB2202B40F0FD803B6A002B02D0BB8CC7
:1017B400002B05D1FB684FF400725A640123F1E059
:1017C400FB6893F84030012B01D10223EAE0FB6867
:1017D400012283F8402002F081FA78617B6900934A
:1017E400192301224FF40041F86800F0AFF90346D1
:1017F400002B01D00123D5E0FB68222283F841208D
:10180400FB68402283F84220FB6800225A64FB688C
:101814003A6A5A62FB68BA8C5A85FB6800225A639A
:10182400F8883A8979897B690193BB6A00930346F6
:10183400F86800F013F90346002B05D0FB6800227A
:1018440083F840200123ADE0FB685B8D9BB2FF2B46
:101854000ED9FB68FF221A85FB681B8DDAB27989E1
:10186400524B00934FF08073F86800F017FB0FE0C1
:10187400FB685B8D9AB2FB681A85FB681B8DDAB234
:1018840079894A4B00934FF00073F86800F006FB27
:101894007B690093BB6A00220421F86800F056F9C2
:1018A4000346002B01D001237CE0FB681B685A6AC5
:1018B400FB685B6AD2B21A70FB685B6A5A1CFB68ED
:1018C4005A62FB681B8D013B9AB2FB681A85FB6860
:1018D4005B8D9BB2013B9AB2FB685A85FB685B8DBA
:1018E4009BB2002B34D0FB681B8D002B30D17B695D
:1018F4000093BB6A00228021F86800F027F90346B0
:10190400002B01D001234DE0FB685B8D9BB2FF2BC4
:101914000ED9FB68FF221A85FB681B8DDAB2798920
:10192400002300934FF08073F86800F0B7FA0FE0DB
:10193400FB685B8D9AB2FB681A85FB681B8DDAB273
:101944007989002300934FF00073F86800F0A6FA39
:10195400FB685B8D9BB2002B9AD17A69B96AF868EF
:1019640000F074F90346002B01D001231AE0FB6850
:101974001B682022DA61FB681B685968FB681A68D7
:101984000B4B0B405360FB68202283F84120FB681B
:10199400002283F84220FB68002283F840200023C1
:1019A40000E0022318461837BD4680BD002400809D
:1019B40000E800FE80B586B002AFF8600846114624
:1019C4001A4603467B810B463B811346FB80FB880A
:1019D400DAB27989204B00934FF08073F86800F0F5
:1019E4005DFAFA69B969F86800F0F0F80346002B6B
:1019F40001D001232CE0FB88012B05D13B89DAB20D
:101A0400FB681B689A6215E03B891B0A9BB2DAB239
:101A1400FB681B689A62FA69B969F86800F0D6F83D
:101A24000346002B01D0012312E03B89DAB2FB68A4
:101A34001B689A62FB690093BB6900228021F868E5
:101A440000F084F80346002B01D0012300E00023BA
:101A540018461037BD4680BD0020008080B586B092
:101A640002AFF860084611461A4603467B810B46CE
:101A74003B811346FB80FB88DAB27989204B0093C3
:101A84000023F86800F00AFAFA69B969F86800F006
:101A94009DF80346002B01D001232CE0FB88012B89
:101AA40005D13B89DAB2FB681B689A6215E03B8971
:101AB4001B0A9BB2DAB2FB681B689A62FA69B969BD
:101AC400F86800F083F80346002B01D0012312E0EC
:101AD4003B89DAB2FB681B689A62FB690093BB69B5
:101AE40000224021F86800F031F80346002B01D0B1
:101AF400012300E0002318461037BD4680BD00BF17
:101B04000020008080B483B000AF78607B681B68DD
:101B14009B6903F00203022B03D17B681B6800223C
:101B24009A627B681B689B6903F00103012B07D051
:101B34007B681B689A697B681B6842F001029A61A2
:101B440000BF0C37BD465DF8047B704780B584B098
:101B540000AFF860B9603B601346FB7122E03B685C
:101B6400B3F1FF3F1ED002F0B9F80246BB69D31AA5
:101B74003A689A4202D33B68002B13D1FB685B6C32
:101B840043F02002FB685A64FB68202283F841205A
:101B9400FB68002283F84220FB68002283F840207F
:101BA40001230FE0FB681B689A69BB681340BA689D
:101BB4009A420CBF01230023DBB21A46FB799A42F6
:101BC400CDD0002318461037BD4680BD80B584B003
:101BD40000AFF860B9607A602CE07A68B968F86898
:101BE40000F070F80346002B01D001232AE0BB6803
:101BF400B3F1FF3F1ED002F071F802467B68D31A9E
:101C0400BA689A4202D3BB68002B13D1FB685B6CA1
:101C140043F02002FB685A64FB68202283F84120C9
:101C2400FB68002283F84220FB68002283F84020EE
:101C3400012307E0FB681B689B6903F00203022B86
:101C4400CBD1002318461037BD4680BD80B584B083
:101C540000AFF860B9607A6028E07A68B968F8681B
:101C640000F030F80346002B01D0012326E002F0F7
:101C740035F802467B68D31ABA689A4202D3BB6825
:101C8400002B13D1FB685B6C43F02002FB685A64A1
:101C9400FB68202283F84120FB68002283F842205D
:101CA400FB68002283F84020012307E0FB681B68DF
:101CB4009B6903F02003202BCFD100231846103753
:101CC400BD4680BD80B58AB000AFF860B9607A6067
:101CD400002387F82730FB681B689B69BB610023DE
:101CE4003B627B68FB61BB6903F01003002B75D07A
:101CF400FB681B681022DA6156E0BB68B3F1FF3F52
:101D040052D001F0EBFF0246FB69D31ABA689A423B
:101D140002D3BB68002B47D1FB681B685B6803F4E4
:101D240080437B61FB6893F84230FB74FB681B685B
:101D34009B6903F40043B3F5004F2ED17B69B3F5DF
:101D4400804F2AD0FB7C202B27D0FB681B685A6865
:101D5400FB681B6842F480425A6001F0BFFFF861DF
:101D64001BE001F0BBFF0246FB69D31A192B14D9FF
:101D7400FB685B6C43F02002FB685A64FB6820221A
:101D840083F84120FB68002283F84220FB6800228C
:101D940083F84020012387F82730FB681B689B6980
:101DA40003F02003202BDCD1FB681B689B6903F044
:101DB4002003202B03D097F82730002B9DD097F8D1
:101DC4002730002B03D1FB681B682022DA613B6AB1
:101DD40043F004033B62012387F82730FB681B6848
:101DE4009B69BB61BB6903F48073002B0BD03B6A16
:101DF40043F001033B62FB681B684FF48072DA61B5
:101E0400012387F82730BB6903F48063002B0BD0D0
:101E14003B6A43F008033B62FB681B684FF4806233
:101E2400DA61012387F82730BB6903F40073002BC0
:101E34000BD03B6A43F002033B62FB681B684FF420
:101E44000072DA61012387F8273097F82730002BD6
:101E54001CD0F868FFF756FEFB681B685968FB68DE
:101E64001A680D4B0B405360FB685A6C3B6A1A436B
:101E7400FB685A64FB68202283F84120FB68002237
:101E840083F84220FB68002283F8402097F827302B
:101E940018462837BD4680BD00E800FE80B487B0F0
:101EA40000AFF8607B600B467B8113467B727B89B5
:101EB400C3F309027B7A1B0403F47F031A437B6890
:101EC4001A433B6A134323F000437B61FB681B689E
:101ED4005A683B6A5B0D03F48061084B0B43DB4398
:101EE40002EA0301FB681B687A690A435A6000BF6F
:101EF4001C37BD465DF8047B704700BFFF63FF03DA
:101F040080B400AF044B1B6803F4C0631846BD469D
:101F14005DF8047B704700BF0070004080B485B05A
:101F240000AF78607B68B3F5007F30D1234B1B682A
:101F340003F4C063B3F5007F38D0204B1B6823F44F
:101F4400C0631E4A43F4007313601D4B1B683222A6
:101F540002FB03F31B4AA2FB03239B0C0133FB602C
:101F640002E0FB68013BFB60144B5B6903F4806394
:101F7400B3F5806F02D1FB68002BF2D10F4B5B6984
:101F840003F48063B3F5806F10D103230FE00B4B90
:101F94001B6803F4C063B3F5806F07D0074B1B685D
:101FA40023F4C063054A43F4806313600023184696
:101FB4001437BD465DF8047B704700BF00700040D5
:101FC4000000002083DE1B4380B586B000AF78603C
:101FD4000023FB740023BB747B681B6803F4006359
:101FE400002B31D07B68DB6CB3F5400F1AD0B3F50E
:101FF400400F14D8002B09D0B3F5000F0FD15D4B5F
:10200400DB685C4A43F48033D3600CE07B680433C0
:102014000021184600F044FA0346FB7403E0012350
:10202400FB7400E000BFFB7C002B0BD1514BD3F8B9
:10203400883023F440027B68DB6C4E491343C1F8BB
:10204400883001E0FB7CBB747B681B6803F40033BD
:10205400002B00F09E8000237B74464B9B6D03F0A5
:102064008053002B01D1012300E00023002B0DD06D
:10207400404B9B6D3F4A43F0805393653D4B9B6DB2
:1020840003F08053BB60BB6801237B743A4B1B682D
:10209400394A43F48073136001F020FEF86009E0CC
:1020A40001F01CFE0246FB68D31A022B02D903235B
:1020B400FB7405E0304B1B6803F48073002BEFD0F6
:1020C400FB7C002B5AD12B4BD3F8903003F4407394
:1020D4007B617B69002B1ED07B685B6E7A699A42B8
:1020E40019D0244BD3F8903023F440737B61214BF7
:1020F400D3F890301F4A43F48033C2F890301D4B1C
:10210400D3F890301B4A23F48033C2F89030194A34
:102114007B69C2F890307B6903F00103002B16D071
:1021240001F0DCFDF8600BE001F0D8FD0246FB682D
:10213400D31A41F28832934202D90323FB7406E096
:102144000C4BD3F8903003F00203002BECD0FB7C53
:10215400002B0BD1074BD3F8903023F440727B68EB
:102164005B6E04491343C1F8903009E0FB7CBB74F7
:1021740006E000BF0010024000700040FB7CBB740E
:102184007B7C012B05D19E4B9B6D9D4A23F0805394
:1021940093657B681B6803F00103002B0AD0984BFE
:1021A400D3F8883023F003027B681B6A94491343F5
:1021B400C1F888307B681B6803F00203002B0AD047
:1021C4008F4BD3F8883023F00C027B685B6A8C4910
:1021D4001343C1F888307B681B6803F00403002BA9
:1021E4000AD0874BD3F8883023F030027B689B6A8F
:1021F40083491343C1F888307B681B6803F00803E4
:10220400002B0AD07E4BD3F8883023F0C0027B68C1
:10221400DB6A7B491343C1F888307B681B6803F091
:102224002003002B0AD0764BD3F8883023F4406285
:102234007B681B6B72491343C1F888307B681B6849
:1022440003F40073002B0AD06D4BD3F8883023F4C9
:1022540040227B685B6C6A491343C1F888307B6811
:102264001B6803F48063002B0AD0654BD3F88830D5
:1022740023F440127B689B6C61491343C1F8883096
:102284007B681B6803F04003002B0AD05C4BD3F837
:10229400883023F440527B685B6B59491343C1F87F
:1022A40088307B681B6803F08003002B0AD0544BF2
:1022B400D3F8883023F440427B689B6B5049134326
:1022C400C1F888307B681B6803F48073002B0AD044
:1022D4004B4BD3F8883023F440327B68DB6B48499E
:1022E4001343C1F888307B681B6803F48013002B08
:1022F4000AD0434BD3F89C3023F003027B681B6C59
:102304003F491343C1F89C307B681B6803F40053B6
:10231400002B28D03A4BD3F8883023F040627B68F6
:102324001B6D37491343C1F888307B681B6DB3F1CB
:10233400006F06D1324BDB68314A43F48013D3601B
:1023440011E07B681B6DB3F1806F0CD17B680433A3
:102354000121184600F0A4F80346FB74FB7C002B13
:1023640001D0FB7CBB747B681B6803F40023002B47
:1023740028D0234BD3F8883023F040627B685B6D10
:102384001F491343C1F888307B685B6DB3F1006F5C
:1023940006D11B4BDB681A4A43F48013D36011E067
:1023A4007B685B6DB3F1806F0CD17B6804330121D2
:1023B400184600F075F80346FB74FB7C002B01D033
:1023C400FB7CBB747B681B6803F48023002B2BD03D
:1023D4000B4BD3F8883023F040627B689B6D08492F
:1023E4001343C1F888307B689B6DB3F1006F09D14A
:1023F400034BDB68024A43F48013D36014E000BF4C
:10240400001002407B689B6DB3F1806F0CD17B6838
:1024140004330121184600F043F80346FB74FB7CA7
:10242400002B01D0FB7CBB747B681B6803F48043E6
:10243400002B1CD0194BD3F8883023F040527B6812
:10244400DB6D16491343C1F888307B68DB6DB3F14B
:10245400805F0CD17B6804330221184600F020F819
:102464000346FB74FB7C002B01D0FB7CBB747B68B4
:102474001B6803F48033002B0AD0084BD3F8883050
:1024840023F000427B681B6E04491343C1F8883073
:10249400BB7C18461837BD4680BD00BF0010024003
:1024A40080B584B000AF786039600023FB73744B4F
:1024B400DB6803F00303002B18D0714BDB6803F0D7
:1024C40003027B681B689A420DD17B681B68002B52
:1024D40009D06B4BDB681B0903F007035A1C7B68AC
:1024E4005B689A4247D00123FB7344E07B681B6816
:1024F400032B18D0032B25D8012B02D0022B09D093
:1025040020E05F4B1B6803F00203002B1DD1012365
:10251400FB731AE05A4B1B6803F48063002B16D13B
:102524000123FB7313E0564B1B6803F40033002BA9
:102534000FD1534B1B6803F48023002B09D10123D3
:10254400FB7306E00123FB7304E000BF02E000BF5D
:1025540000E000BFFB7B002B0DD1494BDB6823F06F
:1025640073027B6819687B685B68013B1B010B4342
:1025740043491343CB60FB7B002B7CD1404B1B684E
:102584003F4A23F08063136001F0A8FBB86009E0C0
:1025940001F0A4FB0246BB68D31A022B02D9032321
:1025A400FB7305E0364B1B6803F00063002BEFD18F
:1025B400FB7B002B5FD13B68002B10D1304B1B6998
:1025C40023F0784323F4FE437A68926811027A6810
:1025D400D268D2060A432A4913430B6127E03B68B9
:1025E400012B12D1264B1B6923F4C00323F4FE43B1
:1025F4007A68926811027A6812695208013A52059F
:102604000A431F4913430B6111E01D4B1B6923F05F
:10261400C06323F4FE437A68926811027A685269AF
:102624005208013A52060A43154913430B61144BED
:102634001B68134A43F08063136001F04FFBB860DA
:1026440009E001F04BFB0246BB68D31A022B02D906
:102654000323FB7305E00A4B1B6803F00063002BA4
:10266400EFD0FB7B002B06D1054B1A697B689B6975
:10267400034913430B61FB7B18461037BD4680BDED
:102684000010024080B588B000AF78607B68002BF2
:1026940002D1012300F002BC964B9B6803F00C03AB
:1026A400BB61944BDB6803F003037B617B681B68AD
:1026B40003F01003002B00F0E480BB69002B07D06B
:1026C400BB690C2B40F08B807B69012B40F0878029
:1026D400884B1B6803F00203002B05D07B689B69C1
:1026E400002B01D10123D9E37B681A6A814B1B6853
:1026F40003F00803002B04D07E4B1B6803F0F003A7
:1027040005E07C4BD3F894301B0903F0F0039342AB
:1027140023D27B681B6A184600F08CFD0346002B0D
:1027240001D00123BAE3734B1B68724A43F00803D8
:102734001360704B1B6823F0F0027B681B6A6D49C1
:1027440013430B606B4B5B6823F47F427B68DB694C
:102754001B02684913434B6025E0664B1B68654ABE
:1027640043F008031360634B1B6823F0F0027B689B
:102774001B6A604913430B605E4B5B6823F47F4222
:102784007B68DB691B025B4913434B60BB69002B0D
:1027940009D17B681B6A184600F04CFD0346002BE8
:1027A40001D001237AE300F081FC0246514B9B687F
:1027B4001B0903F00F035049CB5C03F01F0322FAFB
:1027C40003F34E4A13604E4B1B68184601F036FA69
:1027D4000346FB73FB7B002B52D0FB7B5EE37B68E1
:1027E4009B69002B32D0434B1B68424A43F00103E0
:1027F400136001F073FA386108E001F06FFA0246E1
:102804003B69D31A022B01D9032347E3394B1B68D5
:1028140003F00203002BF0D0364B1B68354A43F01B
:1028240008031360334B1B6823F0F0027B681B6AB8
:10283400304913430B602F4B5B6823F47F427B6862
:10284400DB691B022B4913434B601AE0294B1B68BD
:10285400284A23F00103136001F040FA386108E0CC
:1028640001F03CFA02463B69D31A022B01D9032337
:1028740014E3204B1B6803F00203002BF0D100E0AB
:1028840000BF7B681B6803F00103002B73D0BB6996
:10289400082B05D0BB690C2B0ED17B69032B0BD104
:1028A400144B1B6803F40033002B63D07B685B6814
:1028B400002B5FD10123F1E27B685B68B3F5803FB5
:1028C40006D10C4B1B680B4A43F48033136025E09C
:1028D4007B685B68B3F5A02F14D1064B1B68054ACF
:1028E40043F480231360034B1B68024A43F4803390
:1028F400136013E000100240B03D00080000002007
:1029040004000020A04B1B689F4A23F4803313600B
:102914009D4B1B689C4A23F4802313607B685B688F
:10292400002B13D001F0DAF9386108E001F0D6F990
:1029340002463B69D31A642B01D90323AEE2924BBE
:102944001B6803F40033002BF0D014E001F0C6F947
:10295400386108E001F0C2F902463B69D31A642BDE
:1029640001D903239AE2884B1B6803F40033002B3C
:10297400F0D100E000BF7B681B6803F00203002B6A
:1029840060D0BB69042B05D0BB690C2B19D17B69C2
:10299400022B16D17C4B1B6803F48063002B05D0FB
:1029A4007B68DB68002B01D1012377E2764B5B68FF
:1029B40023F0FE427B681B691B06734913434B607B
:1029C40040E07B68DB68002B23D06F4B1B686E4AAA
:1029D40043F48073136001F081F9386108E001F079
:1029E4007DF902463B69D31A022B01D9032355E230
:1029F400654B1B6803F48063002BF0D0624B5B686B
:102A040023F0FE427B681B691B065F4913434B603E
:102A140018E05D4B1B685C4A23F48073136001F07B
:102A24005DF9386108E001F059F902463B69D31AAF
:102A3400022B01D9032331E2534B1B6803F4806357
:102A4400002BF0D17B681B6803F00803002B3CD0FB
:102A54007B685B69002B1CD04B4BD3F894304A4AFB
:102A640043F00103C2F8943001F038F9386108E00A
:102A740001F034F902463B69D31A022B01D903232E
:102A84000CE2414BD3F8943003F00203002BEFD057
:102A94001BE03D4BD3F894303B4A23F00103C2F8CA
:102AA400943001F01BF9386108E001F017F902468F
:102AB4003B69D31A022B01D90323EFE1324BD3F83C
:102AC400943003F00203002BEFD17B681B6803F002
:102AD4000403002B00F0A6800023FB772A4B9B6D98
:102AE40003F08053002B0DD1274B9B6D264A43F0F6
:102AF40080539365244B9B6D03F08053BB60BB688C
:102B04000123FB77214B1B6803F48073002B18D13E
:102B14001E4B1B681D4A43F48073136001F0DEF8FA
:102B2400386108E001F0DAF802463B69D31A022B57
:102B340001D90323B2E1154B1B6803F48073002B06
:102B4400F0D07B689B68012B08D10F4BD3F89030F1
:102B54000D4A43F00103C2F8903029E07B689B687A
:102B6400052B15D1084BD3F89030074A43F00403E2
:102B7400C2F89030044BD3F89030034A43F0010379
:102B8400C2F8903014E000BF001002400070004012
:102B94009A4BD3F89030994A23F00103C2F890304D
:102BA400964BD3F89030954A23F00403C2F8903042
:102BB4007B689B68002B16D001F090F838610AE01E
:102BC40001F08CF802463B69D31A41F288329342F1
:102BD40001D9032362E1894BD3F8903003F0020357
:102BE400002BEDD015E001F079F838610AE001F02E
:102BF40075F802463B69D31A41F28832934201D9EF
:102C040003234BE17D4BD3F8903003F00203002BF8
:102C1400EDD1FB7F012B05D1784B9B6D774A23F0D7
:102C2400805393657B681B6803F02003002B3CD022
:102C34007B685B6A002B1CD0704BD3F898306F4ACA
:102C440043F00103C2F8983001F048F8386108E015
:102C540001F044F802463B69D31A022B01D903233D
:102C64001CE1664BD3F8983003F00203002BEFD03D
:102C74001BE0624BD3F89830604A23F00103C2F89A
:102C8400983001F02BF8386108E001F027F802468B
:102C94003B69D31A022B01D90323FFE0574BD3F826
:102CA400983003F00203002BEFD17B689B6A002B62
:102CB40000F0F3807B689B6A022B40F0C9804F4B85
:102CC400DB687B617B6903F003027B68DB6A9A4201
:102CD4002CD17B6903F070027B681B6B013B1B01E9
:102CE4009A4223D17B6903F4FE427B685B6B1B022F
:102CF4009A421BD17B6903F078427B689B6BDB06AD
:102D04009A4213D17B6903F4C0027B68DB6B5B08D6
:102D1400013B5B059A4209D17B6903F0C0627B6881
:102D24001B6C5B08013B5B069A426BD0BB690C2BA6
:102D340062D0324B1B6803F08063002B01D0012367
:102D4400ACE02E4B1B682D4A23F08073136000F017
:102D5400C5FF386108E000F0C1FF02463B69D31AA1
:102D6400022B01D9032399E0244B1B6803F0007361
:102D7400002BF0D1214BDA68214B13407A68D16AD9
:102D84007A68126B013A120111437A68526B12028B
:102D940011437A68D26B5208013A520511437A689A
:102DA400126C5208013A520611437A68926BD206A9
:102DB4000A4312491343CB60104B1B680F4A43F07C
:102DC400807313600D4BDB680C4A43F08073D3604F
:102DD40000F084FF386108E000F080FF02463B69A0
:102DE400D31A022B01D9032358E0044B1B6803F0C8
:102DF4000073002BF0D050E001234FE0001002409C
:102E04008C809D01274B1B6803F00073002B44D179
:102E1400244B1B68234A43F080731360214BDB6807
:102E2400204A43F08073D36000F058FF386108E013
:102E340000F054FF02463B69D31A022B01D9032345
:102E44002CE0184B1B6803F00073002BF0D024E037
:102E5400BB690C2B1FD0134B1B68124A23F08073E1
:102E6400136000F03BFF386108E000F037FF0246D2
:102E74003B69D31A022B01D903230FE0094B1B68CA
:102E840003F00073002BF0D1064BDA680549064BBA
:102E94001340CB6001E0012300E0002318462037F3
:102EA400BD4680BD00100240FCFFEEFE80B584B03C
:102EB40000AF786039607B68002B01D10123E7E023
:102EC400754B1B6803F007033A689A4210D9724B9A
:102ED4001B6823F0070270493B6813430B606E4B79
:102EE4001B6803F007033A689A4201D00123CFE03C
:102EF4007B681B6803F00203002B10D07B689A6880
:102F0400664B9B6803F0F0039A4208D9634B9B68B5
:102F140023F0F0027B689B68604913438B607B68F5
:102F24001B6803F00103002B4CD07B685B68032B08
:102F340007D15A4B1B6803F00073002B21D10123E6
:102F4400A6E07B685B68022B07D1544B1B6803F433
:102F54000033002B15D101239AE07B685B68002BBA
:102F640007D14E4B1B6803F00203002B09D1012348
:102F74008EE04A4B1B6803F48063002B01D10123CC
:102F840086E0464B9B6823F003027B685B684349F9
:102F940013438B6000F0A2FEF8600AE000F09EFE8E
:102FA4000246FB68D31A41F28832934201D90323C3
:102FB4006EE03A4B9B6803F00C027B685B689B00F5
:102FC4009A42EBD17B681B6803F00203002B10D0FC
:102FD4007B689A68314B9B6803F0F0039A4208D2ED
:102FE4002E4B9B6823F0F0027B689B682B491343AC
:102FF4008B60294B1B6803F007033A689A4210D28E
:10300400254B1B6823F0070223493B6813430B60DD
:10301400214B1B6803F007033A689A4201D001234D
:1030240036E07B681B6803F00403002B08D01B4BBD
:103034009B6823F4E0627B68DB68184913438B6068
:103044007B681B6803F00803002B09D0134B9B68B3
:1030540023F460527B681B69DB00104913438B60C7
:1030640000F024F802460D4B9B681B0903F00F0384
:103074000B49CB5C03F01F0322FA03F3094A1360E4
:10308400094B1B68184600F0D9FD0346FB72FB7A16
:1030940018461037BD4680BD002002400010024093
:1030A400B03D0008000000200400002080B489B076
:1030B40000AF0023FB610023BB613E4B9B6803F020
:1030C4000C033B613B4BDB6803F00303FB603B6990
:1030D400002B05D03B690C2B21D1FB68012B1ED1A1
:1030E400344B1B6803F00803002B07D1314BD3F892
:1030F40094301B0A03F00F03FB6105E02D4B1B68A2
:103104001B0903F00F03FB612B4AFB6952F82330C0
:10311400FB613B69002B0DD1FB69BB610AE03B6994
:10312400042B02D1254BBB6104E03B69082B01D180
:10313400234BBB613B690C2B34D11E4BDB6803F082
:103144000303BB60BB68022B03D0BB68032B03D013
:1031540005E01A4B7B6105E0194B7B6102E0FB69DA
:103164007B6100BF134BDB681B0903F007030133CA
:103174007B60104BDB681B0A03F07F037A6903FB57
:1031840002F27B68B2FBF3F37B610A4BDB685B0EF4
:1031940003F0030301335B003B607A693B68B2FBD5
:1031A400F3F3BB61BB6918462437BD465DF8047B65
:1031B400704700BF00100240C83D00080024F4001E
:1031C40000127A0080B400AF034B1B681846BD465A
:1031D4005DF8047B704700BF0000002080B500AF9D
:1031E400FFF7F0FF0246064B9B681B0A03F0070338
:1031F4000449CB5C03F01F0322FA03F3184680BD95
:1032040000100240C03D000880B500AFFFF7DAFFB0
:103214000246064B9B68DB0A03F007030449CB5CB8
:1032240003F01F0322FA03F3184680BD0010024086
:10323400C03D000880B586B000AF786000233B61D4
:103244002A4B9B6D03F08053002B03D0FEF758FEEE
:10325400786114E0254B9B6D244A43F080539365B9
:10326400224B9B6D03F08053FB60FB68FEF748FE26
:1032740078611E4B9B6D1D4A23F0805393657B69D7
:10328400B3F5007F0BD17B68802B19D97B68A02B09
:1032940002D902233B6113E001233B6110E07B6808
:1032A400802B02D903233B610AE07B68802B02D187
:1032B40002233B6104E07B68702B01D101233B6155
:1032C4000B4B1B6823F0070209493B6913430B604E
:1032D400074B1B6803F007033A699A4201D00123A4
:1032E40000E0002318461837BD4680BD0010024098
:1032F4000020024080B582B000AF78607B68002B6C
:1033040001D1012340E07B689B6F002B06D17B68D1
:10331400002283F874207868FDF7BEFC7B682422C1
:103324009A677B681B681A687B681B6822F0010235
:103334001A60786800F02CF80346012B01D10123B0
:1033440022E07B685B6A002B02D0786800F0A6FA62
:103354007B681B685A687B681B6822F490425A6039
:103364007B681B689A687B681B6822F02A029A6053
:103374007B681B681A687B681B6842F001021A604C
:10338400786800F02DFB034618460837BD4680BD1B
:103394002DE9B04F8AB000AFF860002387F82230DF
:1033A400FB689A68FB681B691A43FB685B691A43EC
:1033B400FB68DB6913437B62FB681B681A68A54BD7
:1033C4001340FA681268796A0B431360FB681B6840
:1033D4005B6823F44051FB68DA68FB681B680A43A6
:1033E4005A60FB689B697B62FB681B689A4A93423C
:1033F40004D0FB681B6A7A6A13437B62FB681B6810
:103404009B6823F43061FB681B687A6A0A439A60FC
:10341400FB681B68914A934226D1914BD3F88830BC
:1034240003F00303032B1BD801A252F823F000BFBF
:1034340045340008553400084D3400085D34000854
:10344400012387F82330D6E0022387F82330D2E023
:10345400042387F82330CEE0082387F82330CAE01A
:10346400102387F82330C6E0FB681B687D4A93422B
:1034740038D17B4BD3F8883003F00C030C2B2DD8B8
:1034840001A252F823F000BFC1340008E13400085F
:10349400E1340008E1340008D1340008E1340008C4
:1034A400E1340008E1340008C9340008E1340008BC
:1034B400E1340008E1340008D9340008002387F817
:1034C400233098E0022387F8233094E0042387F81C
:1034D400233090E0082387F823308CE0102387F80A
:1034E400233088E0FB681B685F4A934225D15C4B1C
:1034F400D3F8883003F03003302B16D0302B18D893
:10350400202B0AD0202B14D8002B02D0102B08D04B
:103514000FE0002387F823306DE0022387F823307F
:1035240069E0042387F8233065E0082387F8233013
:1035340061E0102387F823305DE0FB681B684B4A89
:10354400934225D1464BD3F8883003F0C003C02BF7
:1035540016D0C02B18D8802B0AD0802B14D8002B5F
:1035640002D0402B08D00FE0002387F8233042E03C
:10357400022387F823303EE0042387F823303AE01F
:10358400082387F8233036E0102387F8233032E00D
:10359400FB681B68304A93422AD1314BD3F88830F8
:1035A40003F44063B3F5406F1AD0B3F5406F1BD8F2
:1035B400B3F5006F0CD0B3F5006F15D8002B03D012
:1035C400B3F5806F08D00FE0002387F8233012E0B2
:1035D400022387F823300EE0042387F823300AE01F
:1035E400082387F8233006E0102387F8233002E00D
:1035F400102387F82330FB681B68174A934240F076
:103604008B8097F82330082B34D801A252F823F08A
:103614003936000879360008413600087936000842
:1036240047360008793600087936000879360008EC
:103634004F360008FFF7D2FDF86121E00C4BFB6127
:103644001EE0FFF733FDF8611AE04FF40043FB611D
:1036540016E000BFF369FFEF00800040003801402E
:10366400001002400044004000480040004C00406C
:103674000024F4000023FB61012387F8223000BFFB
:10368400FB69002B00F0FA80FB685A6813465B0064
:103694001344FA699A4205D3FB685B681B03FA6911
:1036A4009A4203D9012387F82230E7E0FB6900221C
:1036B4001C4615464FF000024FF000032B0243EA6C
:1036C40014632202F9684968490800208846814643
:1036D40012EB080A43EB090BFB685B6800223B60B2
:1036E4007A60D7E9002350465946FCF771FD02463B
:1036F4000B461346BB61BB69B3F5407F08D3BB6976
:10370400B3F5801F04D2FB681B68BA69DA60B5E0C0
:10371400012387F82230B1E0FB68DB69B3F5004F81
:103724005DD197F82330082B27D801A252F823F053
:103734005937000861370008693700087F370008E7
:103744006F3700087F3700087F3700087F3700088D
:1037540077370008FFF742FDF86114E0FFF754FDE6
:10376400F86110E04C4BFB610DE0FFF79FFCF86142
:1037740009E04FF40043FB6105E00023FB610123F2
:1037840087F8223000BFFB69002B77D0FB695A0011
:10379400FB685B685B081A44FB685B68B2FBF3F385
:1037A400BB61BB690F2B16D9BB69B3F5803F12D23D
:1037B400BB699BB223F00F03FB82BB695B089BB21E
:1037C40003F007039AB2FB8A1343FB82FB681B686E
:1037D400FA8ADA6052E0012387F822304EE097F843
:1037E4002330082B27D801A252F823F015380008FB
:1037F4001D380008253800083B3800082B3800081D
:103804003B3800083B3800083B38000833380008D0
:10381400FFF7E4FCF86114E0FFF7F6FCF86110E050
:103824001D4BFB610DE0FFF741FCF86109E04FF42B
:103834000043FB6105E00023FB61012387F822308C
:1038440000BFFB69002B19D0FB685B685A08FB6951
:103854001A44FB685B68B2FBF3F3BB61BB690F2BD3
:1038640009D9BB69B3F5803F05D2BB699AB2FB683D
:103874001B68DA6002E0012387F82230FB6800222B
:103884005A66FB6800229A6697F822301846283751
:10389400BD46BDE8B08F00BF0024F40080B483B0FF
:1038A40000AF78607B685B6A03F00103002B0AD0E9
:1038B4007B681B685B6823F400317B689A6A7B68C9
:1038C4001B680A435A607B685B6A03F00203002B9F
:1038D4000AD07B681B685B6823F480317B68DA6AF2
:1038E4007B681B680A435A607B685B6A03F00403C5
:1038F400002B0AD07B681B685B6823F480217B68FB
:103904001A6B7B681B680A435A607B685B6A03F026
:103914000803002B0AD07B681B685B6823F4004112
:103924007B685A6B7B681B680A435A607B685B6AD6
:1039340003F01003002B0AD07B681B689B6823F4F8
:1039440080517B689A6B7B681B680A439A607B682A
:103954005B6A03F02003002B0AD07B681B689B681A
:1039640023F400517B68DA6B7B681B680A439A6016
:103974007B685B6A03F04003002B1AD07B681B68EA
:103984005B6823F480117B681A6C7B681B680A43AC
:103994005A607B681B6CB3F5801F0AD17B681B6877
:1039A4005B6823F4C0017B685A6C7B681B680A431C
:1039B4005A607B685B6A03F08003002B0AD07B6843
:1039C4001B685B6823F400217B689A6C7B681B6826
:1039D4000A435A6000BF0C37BD465DF8047B70474C
:1039E40080B586B002AF78607B680022C3F880207F
:1039F40000F074F9F8607B681B681B6803F0080327
:103A0400082B0ED16FF07E430093FB6800224FF425
:103A14000011786800F02DF80346002B01D0032331
:103A240023E07B681B681B6803F00403042B0ED19E
:103A34006FF07E430093FB6800224FF480017868A6
:103A440000F017F80346002B01D003230DE07B6838
:103A540020229A677B682022DA677B6800221A6634
:103A64007B68002283F87420002318461037BD4673
:103A740080BD80B59CB000AFF860B9603B60134670
:103A8400FB71A5E0BB6FB3F1FF3F00F0A18000F034
:103A940025F902463B68D31ABA6F9A4202D3BB6F28
:103AA400002B3ED1FB681B683B653B6D53E8003F30
:103AB400FB64FB6C23F4D0737B66FB681B681A46BB
:103AC4007B6EFB65BA65B96DFA6D41E800237B65D1
:103AD4007B6D002BE6D1FB681B680833FB63FB6B33
:103AE40053E8003FBB63BB6B23F001033B66FB68F9
:103AF4001B6808333A6EBA647B64796CBA6C41E82B
:103B040000233B643B6C002BE5D1FB6820229A67C1
:103B1400FB682022DA67FB68002283F87420032301
:103B240067E0FB681B681B6803F00403002B4FD09D
:103B3400FB681B68DB6903F40063B3F5006F47D1CE
:103B4400FB681B684FF400621A62FB681B68BB6267
:103B5400BB6A53E8003F7B627B6A23F4D073FB6645
:103B6400FB681B681A46FB6E7B633A63396B7A6B9E
:103B740041E80023FB62FB6A002BE6D1FB681B686B
:103B840008337B617B6953E8003F3B613B6923F069
:103B94000103BB66FB681B680833BA6E3A62FB61BB
:103BA400F9693A6A41E80023BB61BB69002BE5D19E
:103BB400FB6820229A67FB682022DA67FB682022D0
:103BC400C3F88020FB68002283F87420032310E0EC
:103BD400FB681B68DA69BB681340BA689A420CBF79
:103BE40001230023DBB21A46FB799A423FF44AAF21
:103BF400002318467037BD4680BD000080B582B0F2
:103C040000AF0023FB710C4B1B680B4A43F4807319
:103C140013600320FDF7B4F9002000F00FF8034609
:103C2400002B02D00123FB7101E0FCF7B5FFFB7907
:103C340018460837BD4680BD0020024080B584B0D8
:103C440000AF78600023FB73174B1B78002B23D045
:103C5400164B1A68144B1B7819464FF47A73B3FB4E
:103C6400F1F3B2FBF3F31846FDF7B1F90346002B69
:103C74000FD17B680F2B09D8002279684FF0FF30F1
:103C8400FDF789F90A4A7B68136007E00123FB7397
:103C940004E00123FB7301E00123FB73FB7B184663
:103CA4001037BD4680BD00BF080000200000002082
:103CB4000400002080B400AF064B1B781A46064B64
:103CC4001B681344044A136000BFBD465DF8047BBF
:103CD400704700BF080000200001002080B400AF3E
:103CE400034B1B681846BD465DF8047B704700BF54
:103CF4000001002080B584B000AF7860FFF7EEFFCC
:103D0400B8607B68FB60FB68B3F1FF3F05D00A4BEA
:103D14001B781A46FB681344FB6000BFFFF7DEFF05
:103D24000246BB68D31AFA689A42F7D800BF00BFAC
:103D34001037BD4680BD00BF0800002070B50D4D92
:103D44000D4C641BA4100026A64209D10B4D0C4C4B
:103D540000F020F8641BA4100026A64205D170BD13
:103D640055F8043B98470136EEE755F8043B98476D
:103D74000136F2E7003E0008003E0008003E00085D
:103D8400043E000802440346934200D1704703F8FE
:103D9400011BF9E7F8B500BFF8BC08BC9E467047A4
:0C3DA400F8B500BFF8BC08BC9E46704794
:103DB00000000000000000000102030406070809DB
:103DC0000000000001020304A0860100400D030072
:103DD000801A060000350C0040420F0080841E004F
:103DE00000093D0000127A000024F40000366E0144
:083DF0000048E801006CDC0250
:083DF8000CC4FF7F0100000074
:043E0000B9010008FC
:043E0400950100081C
:0C3E080000093D00100000000100000057
:0400000508000DCD15
:00000001FF
